:020000040800F2
:1000000000000220B12D0008DD170008DF170008EE
:10001000E1170008E3170008E517000800000000DA
:10002000000000000000000000000000E7170008CA
:10003000E917000800000000EB170008ED170008A2
:10004000012E0008012E0008012E0008012E0008D4
:10005000012E0008012E0008012E0008012E0008C4
:10006000012E0008012E0008012E0008012E0008B4
:10007000012E0008012E0008012E0008012E0008A4
:10008000012E0008012E0008012E0008012E000894
:10009000012E0008012E0008012E0008012E000884
:1000A000012E0008012E0008012E0008012E000874
:1000B000012E0008012E0008012E0008012E000864
:1000C000012E0008012E0008012E0008012E000854
:1000D000012E0008F5170008012E00080518000879
:1000E000012E0008012E0008012E0008012E000834
:1000F000012E0008012E0008012E0008012E000824
:10010000012E0008012E0008012E0008012E000813
:10011000012E0008012E0008012E0008012E000803
:10012000012E0008012E0008012E0008012E0008F3
:10013000012E0008012E0008012E0008012E0008E3
:10014000012E0008012E0008012E0008012E0008D3
:10015000012E0008012E0008012E0008012E0008C3
:10016000012E0008012E0008012E0008012E0008B3
:10017000012E0008012E0008012E000800000000DA
:08018000012E0008012E000809
:1001C00010B5054C237833B9044B13B10448AFF391
:1001D00000800123237010BDC00900200000000032
:1001E000A0AB000808B5034B1BB103490348AFF3AC
:1001F000008008BD00000000C4090020A0AB00087A
:100200004FF0FF0C1CEAD0521EBF1CEAD15392EAF9
:100210000C0F93EA0C0F6FD01A4480EA010C4002D5
:1002200018BF5FEA41211ED04FF0006343EA50102F
:1002300043EA5111A0FB01310CF00040B1F5000F71
:100240003EBF490041EAD3715B0040EA010062F120
:100250007F02FD2A1DD8B3F1004F40EBC25008BF0A
:1002600020F00100704790F0000F0CF0004C08BF28
:1002700049024CEA502040EA51207F3AC2BFD2F1F5
:10028000FF0340EAC250704740F400004FF0000303
:10029000013A5DDC12F1190FDCBF00F0004070473D
:1002A000C2F10002410021FA02F1C2F1200200FA7B
:1002B00002FC5FEA310040F1000053EA4C0308BF42
:1002C00020EADC70704792F0000F00F0004C02BF93
:1002D000400010F4000F013AF9D040EA0C0093F00E
:1002E000000F01F0004C02BF490011F4000F013B68
:1002F000F9D041EA0C018FE70CEAD15392EA0C0FD6
:1003000018BF93EA0C0F0AD030F0004C18BF31F040
:10031000004CD8D180EA010000F00040704790F016
:10032000000F17BF90F0004F084691F0000F91F0BA
:10033000004F14D092EA0C0F01D142020FD193EA80
:100340000C0F03D14B0218BF084608D180EA010008
:1003500000F0004040F0FE4040F40000704740F0E4
:10036000FE4040F44000704780F0004002E000BFD3
:1003700081F0004142001FBF5FEA410392EA030F90
:100380007FEA226C7FEA236C6AD04FEA1262D2EBDA
:100390001363C1BFD218414048404140B8BF5B42DF
:1003A000192B88BF704710F0004F40F4000020F078
:1003B0007F4018BF404211F0004F41F4000121F08E
:1003C0007F4118BF494292EA030F3FD0A2F10102D8
:1003D00041FA03FC10EB0C00C3F1200301FA03F116
:1003E00000F0004302D5494260EB4000B0F5000F39
:1003F00013D3B0F1807F06D340084FEA310102F1F8
:100400000102FE2A51D2B1F1004F40EBC25008BFA9
:1004100020F0010040EA03007047490040EB000073
:10042000013A28BFB0F5000FEDD2B0FA80FCACF174
:10043000080CB2EB0C0200FA0CF0AABF00EBC250A1
:1004400052421843BCBFD0401843704792F0000F8F
:1004500081F4000106BF80F400000132013BB5E7E2
:100460004FEA41037FEA226C18BF7FEA236C21D058
:1004700092EA030F04D092F0000F08BF08467047BD
:1004800090EA010F1CBF0020704712F07F4F04D18B
:10049000400028BF40F00040704712F100723CBF9E
:1004A00000F50000704700F0004343F0FE4040F4C8
:1004B000000070477FEA226216BF08467FEA236386
:1004C0000146420206BF5FEA412390EA010F40F471
:1004D000800070474FF0000304E000BF10F00043BD
:1004E00048BF40425FEA000C08BF704743F09643A4
:1004F00001464FF000001CE050EA010208BF7047BF
:100500004FF000030AE000BF50EA010208BF704745
:1005100011F0004302D5404261EB41015FEA010C5A
:1005200002BF84460146002043F0B64308BFA3F152
:100530008053A3F50003BCFA8CF2083AA3EBC25334
:1005400010DB01FA02FC634400FA02FCC2F1200253
:10055000BCF1004F20FA02F243EB020008BF20F08A
:100560000100704702F1200201FA02FCC2F12002F0
:1005700050EA4C0021FA02F243EB020008BF20EAE5
:10058000DC7070474FEA4002B2F1FE4F0FD34FF0DC
:100590009E03B3EB12620DD94FEA002343F00043F0
:1005A00010F0004F23FA02F018BF404270474FF09E
:1005B0000000704712F1610F01D1420205D110F025
:1005C000004008BF6FF0004070474FF000007047D8
:1005D00053B94AB9002908BF00281CBF4FF0FF31AA
:1005E0004FF0FF3000F074B9ADF1080C6DE904CEA6
:1005F00000F006F8DDF804E0DDE9022304B07047FE
:100600002DE9F047089E0D4604468846002B4DD143
:100610008A42944668D9B2FA82F252B101FA02F3E0
:10062000C2F1200120FA01F10CFA02FC41EA0308B0
:1006300094404FEA1C45210CB8FBF5FE1FFA8CF7DD
:1006400005FB1E8341EA03430EFB07F199420BD9D8
:100650001CEB03030EF1FF3080F01E81994240F243
:100660001B81AEF1020E63445B1AA4B2B3FBF5F03A
:1006700005FB103344EA034400FB07F7A7420AD9FD
:100680001CEB040400F1FF3380F00881A74240F224
:10069000058164440238E41B40EA0E4000211EB18B
:1006A000D4400023C6E90043BDE8F0878B4208D957
:1006B000002E00F0EE800021C6E900050846BDE8E6
:1006C000F087B3FA83F100294AD1AB4202D38242C8
:1006D00000F2F980841A65EB030301209846002E8E
:1006E000E2D0C6E90048DFE702B9FFDEB2FA82F2E3
:1006F000002A40F09180A1EB0C054FEA1C471FFA3D
:100700008CFE0121B5FBF7F307FB1350250C45EADE
:1007100000450EFB03F0A84208D91CEB050503F1C8
:10072000FF3802D2A84200F2CB8043462D1AA4B271
:10073000B5FBF7F007FB105544EA05440EFB00FE3D
:10074000A64508D91CEB040400F1FF3502D2A645EA
:1007500000F2BB802846A4EB0E0440EA03409EE76B
:10076000C1F120078B4022FA07FC4CEA030C20FA67
:1007700007F405FA01F31C43FD404FEA1C4900FA57
:1007800001F3B5FBF9F8200C1FFA8CFE09FB185594
:1007900040EA054508FB0EF0A84202FA01F20BD927
:1007A0001CEB050508F1FF3A80F08880A84240F272
:1007B0008580A8F1020865442D1AA4B2B5FBF9F0B2
:1007C00009FB105544EA054500FB0EFEAE4508D96D
:1007D0001CEB050500F1FF346CD2AE456AD9023836
:1007E000654440EA0840A0FB0294A5EB0E05A54233
:1007F000C846A64656D353D05EB1B3EB080265EBAC
:100800000E0505FA07F722FA01F3CD401F43C6E9AA
:1008100000750021BDE8F087C2F1200320FA03F142
:100820000CFA02FC25FA03F395400D434FEA1C47EE
:100830001FFA8CFEB3FBF7F107FB11302B0C43EAD8
:10084000004301FB0EF0984204FA02F408D91CEBB5
:10085000030301F1FF382FD298422DD902396344A6
:100860001B1AADB2B3FBF7F007FB103345EA0345A3
:1008700000FB0EF3AB4208D91CEB050500F1FF3875
:1008800016D2AB4214D902386544ED1A40EA014150
:1008900038E73146304607E78646E5E61846FAE689
:1008A0004B45A9D2B9EB020864EB0C0E0138A3E763
:1008B0004046EAE7204694E74146D1E7D0467BE749
:1008C000023B654432E7084609E76444023842E7E0
:1008D000704700BF000000000000000000000000A2
:1008E0000000000000000000000000000000000008
:1008F00000000000000000000000000000000000F8
:1009000090F800F06DE9024520F007016FF0000C4F
:1009100010F0070491F820F040F049804FF00004F7
:100920006FF00700D1E9002391F840F000F10800D2
:1009300082FA4CF2A4FA8CF283FA4CF3A2FA8CF30A
:100940004BBBD1E9022382FA4CF200F10800A4FA71
:100950008CF283FA4CF3A2FA8CF3E3B9D1E90423C5
:1009600082FA4CF200F10800A4FA8CF283FA4CF3FC
:10097000A2FA8CF37BB9D1E9062301F1200182FAB6
:100980004CF200F10800A4FA8CF283FA4CF3A2FABC
:100990008CF3002BC6D0002A04BF04301A4612BACA
:1009A000B2FA82F2FDE8024500EBD2007047D1E9CD
:1009B000002304F00305C4F100004FEAC50514F05C
:1009C000040F91F840F00CFA05F562EA05021CBF2D
:1009D00063EA050362464FF00004A9E70000000047
:1009E00001F0FF01102A2BDB10F0070F08D010F8E0
:1009F000013B013A8B422DD010F0070F42B3F6D1E4
:100A0000F0B441EA012141EA014122F007047FF0FC
:100A100000070023F0E80256083C85EA010586EA53
:100A2000010685FA47F5A3FA87F586FA47F6A5FA8F
:100A300087F68EB9EED1F0BC01F0FF0102F007029B
:100A400032B110F8013B013A83EA010313B1F8D146
:100A50000020704701387047002D06BF3546033827
:100A6000073815F0010F07D1013015F4807F02BF60
:100A7000013015F4C03F0130F0BC0138704700BFB1
:100A8000844641EA000313F003036DD1403A41D399
:100A900051F8043B40F8043B51F8043B40F8043B58
:100AA00051F8043B40F8043B51F8043B40F8043B48
:100AB00051F8043B40F8043B51F8043B40F8043B38
:100AC00051F8043B40F8043B51F8043B40F8043B28
:100AD00051F8043B40F8043B51F8043B40F8043B18
:100AE00051F8043B40F8043B51F8043B40F8043B08
:100AF00051F8043B40F8043B51F8043B40F8043BF8
:100B000051F8043B40F8043B51F8043B40F8043BE7
:100B1000403ABDD2303211D351F8043B40F8043B87
:100B200051F8043B40F8043B51F8043B40F8043BC7
:100B300051F8043B40F8043B103AEDD20C3205D397
:100B400051F8043B40F8043B043AF9D2043208D08F
:100B5000D2071CBF11F8013B00F8013B01D30B8801
:100B600003806046704700BF082A13D38B078DD0DF
:100B700010F003038AD0C3F10403D21ADB071CBFB1
:100B800011F8013B00F8013B80D331F8023B20F81B
:100B9000023B7BE7043AD9D3013A11F8013B00F854
:100BA000013BF9D20B7803704B7843708B788370DC
:100BB0006046704781F0004102E000BF83F00043CF
:100BC00030B54FEA41044FEA430594EA050F08BFE8
:100BD00090EA020F1FBF54EA000C55EA020C7FEAAC
:100BE000645C7FEA655C00F0E2804FEA5454D4EB29
:100BF0005555B8BF6D420CDD2C4480EA020281EAF3
:100C0000030382EA000083EA010180EA020281EA2A
:100C10000303362D88BF30BD11F0004F4FEA01317C
:100C20004FF4801C4CEA113102D0404261EB41018B
:100C300013F0004F4FEA03334CEA133302D0524211
:100C400063EB430394EA050F00F0A780A4F10104CD
:100C5000D5F1200E0DDB02FA0EFC22FA05F2801807
:100C600041F1000103FA0EF2801843FA05F35941ED
:100C70000EE0A5F120050EF1200E012A03FA0EFC6C
:100C800028BF4CF0020C43FA05F3C01851EBE37196
:100C900001F0004507D54FF0000EDCF1000C7EEBB3
:100CA00000006EEB0101B1F5801F1BD3B1F5001FF1
:100CB0000CD349085FEA30004FEA3C0C04F1010410
:100CC0004FEA445212F5800F80F09A80BCF1004F39
:100CD00008BF5FEA500C50F1000041EB045141EABB
:100CE000050130BD5FEA4C0C404141EB0101013C84
:100CF00028BFB1F5801FE9D291F0000F04BF014673
:100D00000020B1FA81F308BF2033A3F10B03B3F144
:100D100020020CDA0C3208DD02F1140CC2F10C02D4
:100D200001FA0CF021FA02F10CE002F11402D8BF32
:100D3000C2F1200C01FA02F120FA0CFCDCBF41EAFE
:100D40000C019040E41AA2BF01EB0451294330BDCD
:100D50006FEA04041F3C1CDA0C340EDC04F11404AA
:100D6000C4F1200220FA04F001FA02F340EA030081
:100D700021FA04F345EA030130BDC4F10C04C4F1C7
:100D8000200220FA02F001FA04F340EA03002946A7
:100D900030BD21FA04F0294630BD94F0000F83F4F1
:100DA000801306BF81F480110134013D4EE77FEAD4
:100DB000645C18BF7FEA655C29D094EA050F08BF20
:100DC00090EA020F05D054EA000C04BF1946104601
:100DD00030BD91EA030F1EBF0021002030BD5FEA45
:100DE000545C05D14000494128BF41F0004130BD6D
:100DF00014F580043CBF01F5801130BD01F00045C1
:100E000045F0FE4141F470014FF0000030BD7FEA33
:100E1000645C1ABF194610467FEA655C1CBF0B462E
:100E2000024650EA013406BF52EA033591EA030F45
:100E300041F4002130BD00BF90F0000F04BF00213D
:100E4000704730B54FF4806404F132044FF0000570
:100E50004FF0000150E700BF90F0000F04BF0021E9
:100E6000704730B54FF4806404F1320410F000454F
:100E700048BF40424FF000013EE700BF42004FEA4A
:100E8000E2014FEA31014FEA02701FBF12F07F43C7
:100E900093F07F4F81F06051704732F07F4208BF7E
:100EA000704793F07F4F04BF41F40021704730B585
:100EB0004FF4607401F0004521F000411CE700BFD1
:100EC00050EA010208BF704730B54FF000050AE054
:100ED00050EA010208BF704730B511F0004502D555
:100EE000404261EB41014FF4806404F132045FEA57
:100EF000915C3FF4D8AE4FF003025FEADC0C18BF00
:100F000003325FEADC0C18BF033202EBDC02C2F1F1
:100F1000200300FA03FC20FA02F001FA03FE40EA83
:100F20000E0021FA02F11444BDE600BF70B54FF087
:100F3000FF0C4CF4E06C1CEA11541DBF1CEA135565
:100F400094EA0C0F95EA0C0F00F0DEF82C4481EACD
:100F5000030621EA4C5123EA4C5350EA013518BFED
:100F600052EA033541F4801143F4801338D0A0FBDA
:100F700002CE4FF00005E1FB02E506F00042E0FB87
:100F800003E54FF00006E1FB03569CF0000F18BF8D
:100F90004EF0010EA4F1FF04B6F5007F64F5407435
:100FA00004D25FEA4E0E6D4146EB060642EAC621C8
:100FB00041EA55514FEAC52040EA5E504FEACE2E35
:100FC000B4F1FD0C88BFBCF5E06F1ED8BEF1004F38
:100FD00008BF5FEA500E50F1000041EB045170BDB4
:100FE00006F0004646EA010140EA020081EA0301F8
:100FF000B4EB5C04C2BFD4EB0C0541EA045170BDF4
:1010000041F480114FF0000E013C00F3AB8014F16D
:10101000360FDEBF002001F0004170BDC4F10004B6
:10102000203C35DA0C341BDC04F11404C4F1200537
:1010300000FA05F320FA04F001FA05F240EA020092
:1010400001F0004221F0004110EBD37021FA04F6C8
:1010500042EB06015EEA430E08BF20EAD37070BD82
:10106000C4F10C04C4F1200500FA04F320FA05F0E1
:1010700001FA04F240EA020001F0004110EBD370E3
:1010800041F100015EEA430E08BF20EAD37070BD53
:10109000C4F1200500FA05F24EEA020E20FA04F32C
:1010A00001FA05F243EA020321FA04F001F00041DB
:1010B00021FA04F220EA020000EBD3705EEA430E4C
:1010C00008BF20EAD37070BD94F0000F0FD101F07B
:1010D0000046400041EB010111F4801F08BF013CB4
:1010E000F7D041EA060195F0000F18BF704703F0F2
:1010F0000046520043EB030313F4801F08BF013D79
:10110000F7D043EA0603704794EA0C0F0CEA135534
:1011100018BF95EA0C0F0CD050EA410618BF52EAEE
:101120004306D1D181EA030101F000414FF00000F4
:1011300070BD50EA410606BF1046194652EA430602
:1011400019D094EA0C0F02D150EA013613D195EA76
:101150000C0F05D152EA03361CBF104619460AD1BE
:1011600081EA030101F0004141F0FE4141F47001C8
:101170004FF0000070BD41F0FE4141F4780170BDB8
:1011800070B54FF0FF0C4CF4E06C1CEA11541DBF1D
:101190001CEA135594EA0C0F95EA0C0F00F0A7F81F
:1011A000A4EB050481EA030E52EA03354FEA01314C
:1011B00000F088804FEA03334FF0805545EA13135F
:1011C00043EA12634FEA022245EA111545EA106527
:1011D0004FEA00260EF000419D4208BF964244F1BE
:1011E000FD0404F5407402D25B084FEA3202B61ADD
:1011F00065EB03055B084FEA32024FF480104FF4B1
:10120000002CB6EB020E75EB030E22BFB61A754624
:1012100040EA0C005B084FEA3202B6EB020E75EBB7
:10122000030E22BFB61A754640EA5C005B084FEA1F
:101230003202B6EB020E75EB030E22BFB61A7546EC
:1012400040EA9C005B084FEA3202B6EB020E75EBF7
:10125000030E22BFB61A754640EADC0055EA060EB8
:1012600018D04FEA051545EA16754FEA06164FEAFB
:10127000C30343EA52734FEAC2025FEA1C1CC0D1A7
:1012800011F4801F0BD141EA00014FF000004FF034
:10129000004CB6E711F4801F04BF01430020B4F1F5
:1012A000FD0C88BFBCF5E06F3FF6AFAEB5EB030CAD
:1012B00004BFB6EB020C5FEA500C50F1000041EBAA
:1012C000045170BD0EF0004E4EEA113114EB5C0477
:1012D000C2BFD4EB0C0541EA045170BD41F480114A
:1012E0004FF0000E013C90E645EA060E8DE60CEA52
:1012F000135594EA0C0F08BF95EA0C0F3FF43BAF6F
:1013000094EA0C0F0AD150EA01347FF434AF95EA25
:101310000C0F7FF425AF104619462CE795EA0C0F09
:1013200006D152EA03353FF4FDAE1046194622E7D6
:1013300050EA410618BF52EA43067FF4C5AE50EAB0
:1013400041047FF40DAF52EA43057FF4EBAE12E7A0
:101350004FF0FF3C06E000BF4FF0010C02E000BF81
:101360004FF0010C4DF804CD4FEA410C7FEA6C5C64
:101370004FEA430C18BF7FEA6C5C1BD001B050EA07
:10138000410C0CBF52EA430C91EA030F02BF90EAF2
:10139000020F0020704710F1000F91EA030F58BFB1
:1013A000994208BF90422CBFD8176FEAE37040F013
:1013B000010070474FEA410C7FEA6C5C02D150EAB1
:1013C000013C07D14FEA430C7FEA6C5CD6D152EA6C
:1013D000033CD3D05DF8040B704700BF8446104631
:1013E00062468C461946634600E000BF01B5FFF730
:1013F000B7FF002848BF10F1000F01BD4DF808ED00
:10140000FFF7F4FF0CBF012000205DF808FB00BFD0
:101410004DF808EDFFF7EAFF34BF012000205DF82A
:1014200008FB00BF4DF808EDFFF7E0FF94BF012077
:1014300000205DF808FB00BF4DF808EDFFF7CEFF78
:1014400094BF012000205DF808FB00BF4DF808EDB7
:10145000FFF7C4FF34BF012000205DF808FB00BF88
:101460004FEA410C7FEA6C5C02D150EA013C0AD1A0
:101470004FEA430C7FEA6C5C02D152EA033C02D192
:101480004FF0000070474FF0010070474FEA4102F3
:1014900012F5001215D211D56FF47873B3EB6252C6
:1014A00012D94FEAC12343F0004343EA505311F0ED
:1014B000004F23FA02F018BF404270474FF000007F
:1014C000704750EA013005D111F0004008BF6FF0BD
:1014D000004070474FF00000704700BF2DE9F04317
:1014E0008BB0002405940694079408940994009402
:1014F000374B1A6B42F080021A631A6B02F08002BB
:101500000092009A01941A6B42F004021A631A6B5B
:1015100002F004020192019A02941A6B42F0010255
:101520001A631A6B02F001020292029A03941A6B78
:1015300042F002021A631A6B02F002020392039A4B
:1015400004941A6B42F040021A631B6B03F04003D1
:101550000493049B1F4E01220521304600F0DFFE5C
:10156000DFF8749001221021484600F0D8FEDFF821
:101570006C8001224FF48041404600F0D0FE0125EE
:101580000595069502270797089705A9304600F0AC
:10159000D7FD0423059306950797089405A93046BF
:1015A00000F0CEFD1023059306950795089405A934
:1015B000484600F0C5FD4FF4804305930695079516
:1015C000089505A9404600F0BBFD0BB0BDE8F083CF
:1015D00000380240000802400000024000180240AB
:1015E00010B5054C207801F09DFC012221460348EE
:1015F00001F0ACFA10BD00BFE0090020A80A0020ED
:1016000008B572B6FF2304220249034801F0B9F974
:10161000F8E700BFB8AB0008280A002008B5304A38
:10162000136823F00F0343F0050313602C4B1B6872
:1016300003F00F03052BF9D12A4A136843F48043C2
:10164000136002F5E432136823F0F80343F08003DB
:101650001360136843F001031360234B1B6813F0FE
:10166000020FFAD0204A5168204B0B4043F4285314
:1016700043F008035360536823F440335360136806
:1016800043F080731360184B1B6813F0007FFAD08F
:10169000154B9A6822F0F0029A609A6822F4E052A0
:1016A00042F4A0529A609A6822F4604242F40042E6
:1016B0009A609A6822F0030242F002029A600A4B92
:1016C0009B6803F00C03082BF9D1094801F06AFB71
:1016D000002000F04FFC00B908BDFFF791FF00BFEC
:1016E000003C024000700040003802400080BFFF14
:1016F000007A030A00B585B000F062FCFFF78EFFA8
:10170000FFF7ECFE00F00CF900F024F900F0B8F857
:1017100000F03AF900F0E6FA1B4800F049FB1B48DC
:1017200000F0F0FA01221A491A4801F00FFA0023DA
:1017300001930293ADF80C30174D2868FEF722FF95
:101740000246164C214601A801F022FD01A8FFF730
:10175000D7F8421CFF2392B201A90E4801F011F9FB
:101760004FF480410E4800F0E0FD084800F0D9FA3F
:101770002860FEF707FF0146204600F0E3FB4FF428
:101780007A7000F049FCD2E7280A0020E109002025
:10179000E0090020A80A0020DC090020BCAB0008FA
:1017A0000018024082B0002100910B4B5A6C42F4A9
:1017B00080425A645A6C02F480420092009A01916D
:1017C0001A6C42F080521A641B6C03F08053019330
:1017D000019B02B0704700BF00380240FEE7FEE701
:1017E000FEE7FEE7FEE770477047704708B500F078
:1017F00001FC08BD08B5024801F038FA08BD00BF79
:10180000280A002008B5024801F030FA08BD00BFE0
:10181000A80A00200120704708B501F0F3FA16234A
:1018200003604FF0FF3008BD08B54FF0FF31FFF700
:10183000F3FFFEE708B503460B4A126842B10A4AB5
:10184000106803446A46934206D8074A136008BDED
:10185000054A06491160F2E701F0D4FA0C2303604F
:101860004FF0FF30F3E700BFE4090020380B002001
:10187000024B4FF000629A60704700BF00ED00E03D
:1018800000B587B00023029303930493059300935C
:1018900001931548154A02605322426083604FF657
:1018A000FF72C26003614361836100F0FFFD90B984
:1018B0004FF48053029302A90B4800F01DFE68B953
:1018C0000023009301936946074800F083FE40B966
:1018D00007B05DF804FBFFF793FEE9E7FFF790FE22
:1018E000EEE7FFF78DFEF3E7E80900200000014076
:1018F0000268094B9A4200D0704782B000230193DE
:10190000064B5A6C42F001025A645B6C03F001030F
:101910000193019B02B07047000001400038024073
:1019200008B50A480A4B03604FF4E13343600023D3
:101930008360C36003610C2242618361C36100F074
:10194000F1FF00B908BDFFF75BFEFBE7280A0020A6
:101950000010014008B50A480A4B03604FF4E13318
:10196000436000238360C36003610C224261836192
:10197000C36100F0D7FF00B908BDFFF741FEFBE7E8
:10198000680A00200044004008B50A480A4B03607A
:101990004FF41653436000238360C36003610C223D
:1019A00042618361C36100F0BDFF00B908BDFFF76C
:1019B00027FEFBE7A80A00200048004010B58CB0C5
:1019C00000230793089309930A930B930368434AF0
:1019D000934207D0424A934230D0424A934250D079
:1019E0000CB010BD002401943F4B5A6C42F0100221
:1019F0005A645A6C02F010020192019A02941A6B16
:101A000042F001021A631B6B03F001030293029B75
:101A10004FF4C06307930223089303230A93072319
:101A20000B9307A9314800F08BFB22462146252065
:101A300000F018FB252000F04DFBD1E700210391B9
:101A4000294B1A6C42F400321A641A6C02F4003208
:101A50000392039A04911A6B42F001021A631B6B02
:101A600003F001030493049B0C23079302230893C0
:101A700003230A9307230B9307A91C4800F060FB7C
:101A8000AEE700240594184B1A6C42F480221A64C5
:101A90001A6C02F480220592059A06941A6B42F0A1
:101AA00002021A631B6B03F002030693069B4FF4BA
:101AB000406307930223089303230A9307230B939E
:101AC00007A90B4800F03CFB22462146272000F0E6
:101AD000C9FA272000F0FEFA82E700BF001001409B
:101AE000004400400048004000380240000002402E
:101AF000000402400BE001F5243140314FF0E023B7
:101B00009B699A42FADA9942F8DBA0EB0C00B0B17B
:101B10008446B0F5617F28BF4FF4617C4FF0E0232D
:101B20009A696FF0A70101FB0C210029E3DB4FF05C
:101B3000E0239B699A42E8DD9942F8DDE5E77047CA
:101B400000B587B00123019302930223049301A9F6
:101B5000024800F0F5FA07B05DF804FB0008024007
:101B600010B5FFF7EDFF094C00220121204600F0DF
:101B7000D6FB40F2EE20FFF7BDFF012211462046C2
:101B800000F0CDFB0F20FFF7B5FF10BD00080240AD
:101B900070B50546FFF7D4FF002412E0164E002270
:101BA0000121304600F0BBFB4620FFF7A3FF0122D6
:101BB0001146304600F0B3FB0220FFF79BFF0134D3
:101BC000E4B2072C16D805F001036D08002BE5D010
:101BD000094E00220121304600F0A1FB0520FFF74D
:101BE00089FF01221146304600F099FB4120FFF7A2
:101BF00081FFE4E770BD00BF0008024000B587B078
:101C00000123019300230293039301A9024800F0EA
:101C100097FA07B05DF804FB0008024010B5FFF723
:101C2000EDFF00240121124800F072FB38B1632C53
:101C300005D80134E4B20120FFF75CFFF2E7632C22
:101C400011D8002404E00134E4B20120FFF752FF70
:101C50000121074800F05CFB08B9EF2CF3D9EF2C09
:101C600003D9012000E0012010BD0020FCE700BFE7
:101C70000008024008B5FFF773FFFFF7CFFF5520BC
:101C8000FFF786FF08BD000010B5FFF759FF0C4CA9
:101C900000220121204600F042FB0A20FFF72AFF24
:101CA000FFF7ACFF0121204600F032FB044601287B
:101CB00000D000242D20FFF71DFF204610BD00BFDF
:101CC0000008024038B500252C4606E0FFF7DCFF8F
:101CD000A0400543EDB20134E4B2072CF6D9284602
:101CE00038BD000008B5FFF72BFF0122114604485C
:101CF00000F015FBFFF734FFFFF790FF08BD00BFB2
:101D00000008024038B505463320FFF741FF0024A4
:101D100004E0FFF7D7FF28550134E4B2072CF8D9C7
:101D200038BD38B50546FFF7A5FF002404E0285D5F
:101D3000FFF72EFF0134E4B2072CF8D94420FFF757
:101D400027FFFFF797FF002404E0285DFFF720FF3F
:101D50000134E4B2072CF8D9BE20FFF719FFFFF7D2
:101D6000B1FF0446FFF7AEFF000203B220B21843F2
:101D700006D4FEF7B3FB4FF07651FEF741FA38BDBB
:101D80004042FEF7ABFB4FF07651FEF739FAF6E72B
:101D900008B5054B1860054B186800230222194648
:101DA000806801F01DF908BDE80A00201400002039
:101DB00008B5FFF7EDFF0A4801F0A0F8094801F067
:101DC00007F9094B1A68094B1968094800F084F8AB
:101DD000084800F081F8084800F07EF808BD00BF10
:101DE000C8AB0008E0AB0008080000200400002099
:101DF00088AE000894AE0008E4AE0008022801D8BE
:101E00000120704708B500F0FDFF092303600020A2
:101E100008BD000010B5013801280AD814464FF05B
:101E2000FF3392B20748006800F0ABFD40B920468E
:101E300010BD00F0E7FF092303604FF0FF30F7E724
:101E40000520F5E7E80A0020022801D800207047A5
:101E500008B500F0D7FF092303604FF0FF3008BD3D
:101E600008B500F0CFFF092303604FF0FF3008BD35
:101E700008B548B94FF0FF3301220848006800F068
:101E8000F0FD40B9012008BD00F0BCFF092303604C
:101E90004FF0FF30F7E70520F5E700BFE80A002024
:101EA00008B5022804D84FF400534B60002008BD49
:101EB00000F0A8FF09230360F8E70FB400B583B072
:101EC00004A951F8040B019104F04AFC03B05DF839
:101ED00004EB04B0704700000FB400B583B004A950
:101EE00051F8040B019104F03BFC044801F070F838
:101EF00003B05DF804EB04B0704700BF10AF0008FA
:101F000010B5044630B1012C08D0022C0AD0032CA5
:101F10000CD010BD0748FFF7D0FFF4E70648FFF7E5
:101F2000CCFFF2E70548FFF7C8FFF0E70448FFF7EA
:101F3000C4FFEEE714AF00081CAF000824AF000890
:101F400030AF00080FB430B583B006AC54F8045B72
:101F50000020FFF7D5FF01942146284604F000FC3D
:101F60000348FFF7B9FF03B0BDE8304004B0704745
:101F700010B2000810B504460E4B18784FF47A736F
:101F8000B3FBF0F30C4A1068B0FBF3F000F0B0F8CC
:101F900068B90F2C01D901200AE0002221464FF038
:101FA000FF3000F05FF8054B1C60002000E00120CE
:101FB00010BD00BF0C000020000000201000002019
:101FC00008B50B4B1A6842F400721A601A6842F4A2
:101FD00080621A601A6842F480721A60032000F06E
:101FE0002FF80020FFF7C6FFFFF7DCFB002008BD3D
:101FF000003C0240034A1168034B1B780B441360FA
:10200000704700BFEC0A00200C000020014B18684C
:10201000704700BFEC0A002038B50446FFF7F6FF12
:102020000546B4F1FF3F02D0044B1B781C44FFF778
:10203000EDFF401BA042FAD338BD00BF0C000020CA
:10204000074AD36823F4E0631B041B0C000200F46E
:10205000E060034343F0BF6343F40033D360704751
:1020600000ED00E000B5194BDB68C3F30223C3F1B8
:10207000070CBCF1040F28BF4FF0040C03F1040E51
:10208000BEF1060F18D9033B4FF0FF3E0EFA0CFCD1
:1020900021EA0C0199400EFA03F322EA03031943E3
:1020A00000280BDB0901C9B200F1604000F5614076
:1020B00080F800135DF804FB0023E5E700F00F0053
:1020C0000901C9B2024B1954F4E700BF00ED00E06A
:1020D00014ED00E0002807DB00F01F024009012397
:1020E0009340024A42F82030704700BF00E100E010
:1020F0000138B0F1807F0BD24FF0E0235861054AE0
:10210000F02182F823100020986107221A6170479D
:102110000120704700ED00E090F83530DBB2022B73
:1021200003D08023436501207047052380F83530B4
:102130000268136823F00103136000207047000059
:1021400000230F2B00F2DA80F0B583B03AE00722CB
:1021500000E00022AA4032430234694D45F82420B1
:10216000684A14686FEA0C0224EA0C054E6816F4FB
:10217000803F01D04CEA0405624C2560646802EAA5
:1021800004054E6816F4003F01D04CEA04055D4C8E
:102190006560A46802EA04054E6816F4801F01D049
:1021A0004CEA0405574CA560E46822404D6815F4DC
:1021B000001F01D04CEA0402524CE26001330F2BA5
:1021C00000F29A8001229A400C6804EA020C32EA7A
:1021D0000404F3D14C68651E012D03D9112C01D0E4
:1021E000122C12D185685E000324B44025EA040550
:1021F000CC68B4402C438460456825EA02054C68ED
:10220000C4F300129A402A434260C5684FEA430E65
:10221000032404FA0EF4E24325EA04058C6804FA68
:102220000EF42C43C4604C68022C01D0122C0FD148
:10223000DD08083550F8257003F00704A6000F24C8
:10224000B44027EA04070C69B4403C4340F82540F9
:10225000046814404A6802F0030202FA0EF22243B4
:1022600002604A6812F0805FA8D000220192264ADC
:10227000546C44F480445464526C02F480420192E1
:10228000019A9C08A51C1E4A52F8256003F003021F
:1022900095000F22AA4026EA02061C4A90423FF40B
:1022A00058AF02F5806290421AD002F580629042E7
:1022B00018D002F58062904216D002F580629042FA
:1022C00014D002F58062904212D002F580629042F2
:1022D00010D002F5806290423FF439AF082239E70E
:1022E000012237E7022235E7032233E7042231E7F0
:1022F00005222FE706222DE703B0F0BD704700BF8F
:1023000000380140003C014000380240000002401B
:102310000369194201D001207047002070470AB1BB
:1023200081617047090481617047436931EA0303A1
:1023300001D081617047090481617047014B1868C1
:10234000704700BF0000002008B5FFF7F7FF044BFF
:102350009B68C3F38223034AD35CD84008BD00BF07
:1023600000380240C0AB000808B5FFF7E7FF044B98
:102370009B68C3F34233034AD35CD84008BD00BF17
:1023800000380240C0AB000810B4036A046A24F0AD
:1023900001040462846924F0F00C4CEA021223F078
:1023A0000A030B438261036210BC704710B4046AD5
:1023B00024F0100404628469036A24F4704C4CEA2B
:1023C000023223F0A00343EA01138261036210BCCE
:1023D0007047836823F070030B4343F00703836067
:1023E000704700000368304A904212D0B0F1804F2D
:1023F0000FD0A2F57C4290420BD002F58062904251
:1024000007D002F58062904203D002F578429042F4
:1024100003D123F070034A681343234A90422AD021
:10242000B0F1804F27D0A2F57C42904223D002F534
:10243000806290421FD002F5806290421BD002F56C
:102440007842904217D002F57052904213D002F5B4
:10245000806290420FD002F5806290420BD0A2F5CC
:102460009832904207D002F58062904203D002F584
:102470008062904203D123F44073CA68134323F06F
:1024800080034A69134303608B68C3620B688362ED
:10249000054B984203D003F58063984201D10B6944
:1024A000036301234361704700000140B0B110B5E0
:1024B000044690F83D3063B1022384F83D30214654
:1024C00051F8040BFFF78EFF012384F83D30002004
:1024D00010BD80F83C30FFF70BFAEDE701207047A4
:1024E00010B4846824F47F4C42EA03220A4342EA8F
:1024F0000C02826010BC704790F83C30012B66D013
:1025000010B50446012380F83C30022380F83D30AA
:102510000268936823F47F4323F0770393600B688A
:10252000602B40D022D8402B47D00BD9502B0ED156
:10253000CA6849680068FFF727FF50212068FFF745
:1025400048FF04E0202B0CD008D9302B09D0012300
:1025500084F83D30002084F83C0010BD0BB1102BF6
:10256000F5D119462068FFF734FFF0E7702B0ED045
:10257000B3F5005FEBD1CB684A6889680068FFF764
:10258000AFFF2268936843F480439360DFE7CB6832
:102590004A6889680068FFF7A3FF2268936843F0E0
:1025A00077039360D3E7CA6849680068FFF7FEFEC7
:1025B00060212068FFF70DFFC9E7CA684968006815
:1025C000FFF7E2FE40212068FFF703FFBFE702208C
:1025D0007047000090F83C30012B3CD010B4012330
:1025E00080F83C30022380F83D3003685A689C68CC
:1025F00022F0700C0A6842EA0C025A600368174A1B
:1026000093421AD0B3F1804F17D0A2F57C42934287
:1026100013D002F5806293420FD002F5806293429C
:102620000BD002F57842934207D002F570529342E4
:1026300003D0A2F59432934204D124F080044A6876
:1026400014439C60012380F83D30002380F83C3027
:10265000184610BC70470220704700BF00000140C0
:102660000268D36823F49073D3600268536923F03F
:1026700001035361202380F83A30704790F83930D5
:10268000DBB2212B01D0022070478368B3F5805F55
:1026900017D0036A5A1C02621A7803685A60C38C06
:1026A0009BB2013B9BB2C3844BB90268D36823F051
:1026B0008003D3600268D36843F04003D3600020F6
:1026C0007047036A1B880268C3F3080353600369F9
:1026D0001BB9036A02330362E1E7036A0133036251
:1026E000DDE7000038B504460268136923F440535F
:1026F000C1680B4313618368026913434269134342
:10270000C2691A430168CB6823F4164323F00C0313
:102710001343CB600268536923F4407381690B4310
:102720005361C369B3F5004F35D00368604A9342E3
:1027300000F0918002F58062934200F08C80FFF7F8
:1027400003FE0021031849411B1841F10001C90093
:1027500041EA5371DB00181863684FEA83024FEABD
:10276000937341F10001FDF733FF524DA5FB003299
:102770005109642303FB11031B013233A5FB03231F
:102780005B0903F0F00202EB011203F00F03216872
:1027900013448B608AE00368454A93422FD002F5C8
:1027A000806293422BD0FFF7CFFD0023021843EB4A
:1027B0000301121841F10001C90041EA5271D2002F
:1027C000101841F10001626892185B41FDF700FFAB
:1027D000384DA5FB00325109642303FB1103DB00D4
:1027E0003233A5FB03235B095A0002F4F87202EBB3
:1027F000011203F00703216813448B6056E0FFF7D2
:10280000B3FD0023021843EB0301121841F100014C
:10281000C90041EA5271D200101841F1000162680A
:1028200092185B41FDF7D4FE224DA5FB0032510901
:10283000642303FB1103DB003233A5FB03235B0995
:102840005A0002F4F87202EB011203F00703216848
:1028500013448B602AE0FFF787FD002103184941EC
:102860001B1841F10001C90041EA5371DB0018183F
:1028700063684FEA83024FEA937341F10001FDF769
:10288000A7FE0C4DA5FB00325109642303FB110385
:102890001B013233A5FB03235B0903F0F00202EBBB
:1028A000011203F00F03216813448B6038BD00BF91
:1028B000001001401F85EB512DE9F84305460F46F6
:1028C00016469946DDF820802C68246837EA040310
:1028D0000CBF4FF0010C4FF0000CB4451FD1B8F104
:1028E000FF3FF1D0B8F1000F05D0FFF78FFBA0EB51
:1028F00009004045E8D92A68D36823F4D073D3602F
:102900002A68536923F001035361202385F8393085
:1029100085F83A30002385F83830032000E00020A5
:10292000BDE8F88358B310B5044690F839300BB3BE
:10293000242384F839302268D36823F40053D36009
:102940002046FFF7CFFE2268136923F490431361FA
:102950002268536923F02A0353612268D36843F441
:102960000053D3600020E063202384F8393084F8DA
:102970003A3010BD80F83830FFF720F8D8E7012052
:1029800070472DE9F04383B01E4690F83930DBB232
:10299000202B56D104460D469046002955D0002ADA
:1029A00055D090F83830012B53D0012380F83830BF
:1029B0004FF00009C0F83C90212380F83930FFF730
:1029C00025FB0746A4F82480A4F8268084F83890D4
:1029D00010E000963B46002280212046FFF76CFF66
:1029E000002838D12B882268C3F308035360236979
:1029F000CBB90235E38C9BB2BBB1E28C92B2013A07
:102A000092B2E284A368B3F5805FE2D000963B46C1
:102A1000002280212046FFF74FFFF0B915F8012B67
:102A200023685A60E6E70135E4E700963B4600225A
:102A300040212046FFF740FF88B9202384F8393031
:102A400000E0022003B0BDE8F0830120FAE7012096
:102A5000F8E70220F6E70320F4E70320F2E703207B
:102A6000F0E72DE9F04383B01E4690F83A30DBB230
:102A7000202B5DD104460D46904600295CD0002AEB
:102A80005CD090F83830012B5AD0012380F83830D0
:102A90004FF00009C0F83C90222380F83A30FFF74D
:102AA000B5FA0746A4F82C80A4F82E8084F8389054
:102AB0001DE000963B46002220212046FFF7FCFE49
:102AC00000283FD1236933B923685B68C3F3080347
:102AD00025F8023B0BE023685B68DBB225F8013B7D
:102AE00005E023685B6803F07F0305F8013BE38D95
:102AF0009BB2C3B1E28D92B2013A92B2E285A36871
:102B0000B3F5805FD5D000963B46002220212046B9
:102B1000FFF7D2FEC0B92369002BE2D123685B68BE
:102B200005F8013BE3E7202384F83A30002000E079
:102B3000022003B0BDE8F0830120FAE70120F8E7A6
:102B40000220F6E70320F4E70320F2E790F83A309A
:102B5000DBB2202B23D121B32AB390F83830012BDC
:102B600023D0012380F8383081628285C28500231A
:102B7000C363222280F83A2080F838300168CA689E
:102B800042F48072CA6001684A6942F001024A61F7
:102B90000168CA6842F02002CA60184670470220E5
:102BA000704701207047012070470220704770472E
:102BB00008B50168CA6822F04002CA60202280F885
:102BC0003920FFF7F4FF002008BD08B590F83A302F
:102BD000DBB2222B46D18368B3F5805F0FD0036947
:102BE0000BBB03685A68836A591C81621A70C38DD3
:102BF0009BB2013B9BB2C385F3B1002008BD826A42
:102C0000036943B903685B68C3F308031380836AED
:102C100002338362EBE703685B68DBB21380836A8D
:102C200001338362E3E703685B68826A511C816257
:102C300003F07F031370DAE70268D36823F0200300
:102C4000D3600268D36823F48073D3600268536949
:102C500023F001035361202380F83A30FEF7C0FCD3
:102C60000020CBE70220C9E77047000010B50446FA
:102C700002681368D168526913F00F0005D113F090
:102C8000200F02D011F0200F13D128B112F0010251
:102C900013D111F4907F10D113F0800F02D011F0F6
:102CA000800F6CD113F0400F02D011F0400F6AD1A9
:102CB00010BD2046FFF789FFFAE713F0010F06D099
:102CC00011F4807F03D0E06B40F00100E06313F06B
:102CD000040F04D01AB1E06B40F00200E06313F07F
:102CE000020F04D01AB1E06B40F00400E06313F06F
:102CF000080F07D011F0200F00D11AB1E26B42F09B
:102D00000802E263E26B002AD2D013F0200F02D057
:102D100011F0200F21D123685B6903F04003E26BBF
:102D200012F0080F00D123B32046FFF799FC236867
:102D30005A6912F0400F18D05A6922F040025A61C5
:102D4000636B73B1124A1A65606BFFF7E5F90028EF
:102D5000AED0606B036D9847AAE72046FFF735FFBA
:102D6000D9E72046FFF780FFA2E72046FFF77CFF68
:102D70009EE72046FFF778FF0023E36398E72046AD
:102D8000FFF77CFC94E72046FFF712FF90E700BFB7
:102D9000952D000808B5806B0023C385C384FFF719
:102DA00063FF08BD014B1860704700BF00000020A2
:102DB000DFF834D0002103E00C4B5B584350043162
:102DC0000B480C4B42189A42F6D30B4A02E0002300
:102DD00042F8043B094B9A42F9D3FEF749FD00F053
:102DE00017F8FEF787FC7047000002206CB300085C
:102DF00000000020C0090020C0090020380B00207E
:102E0000FEE70000014B1868704700BF1400002067
:102E100070B50D4E0D4D761BB61006D0002455F83A
:102E2000043B01349847A642F9D1094E094D761B5F
:102E300007F0B6FEB61006D0002455F8043B013466
:102E40009847A642F9D170BD60B3000860B300088E
:102E500068B3000860B30008830730B548D0541E3B
:102E6000002A3FD0CAB2034601E0013C3AD303F83E
:102E7000012B9D07F9D1032C2DD9CDB245EA0525AB
:102E80000F2C45EA054536D9A4F1100222F00F0CAB
:102E900003F1200EE6444FEA121C03F1100242E94E
:102EA000045542E9025510327245F8D10CF1010285
:102EB00014F00C0F03EB021204F00F0C13D0ACF162
:102EC000040323F003030433134442F8045B9342E6
:102ED000FBD10CF003042CB1CAB21C4403F8012B43
:102EE0009C42FBD130BD64461346002CF4D1F9E777
:102EF00003461446BFE71A46A446E0E70FB400B500
:102F0000074983B004AB086853F8042B8168019328
:102F100001F07CFE03B05DF804EB04B0704700BF25
:102F200014000020024B01461868826806F082B83F
:102F30001400002070B5054688B008460C46FDF721
:102F4000DFFC224EAA6B059001214318CDE90661F2
:102F500004A8022104940393AC680190029122B367
:102F6000636E13F0010FB4F90C309AB201D19805D9
:102F700025D5910406D4626E43F4005322F4005226
:102F8000A3816266284601AA214604F025FF636EEC
:102F9000002814BF4FF0FF350A25DA0702D4A389B1
:102FA0009B0506D5284608B070BD284604F016FDDE
:102FB000D6E7A06D05F0B2F8284608B070BDA06D48
:102FC00005F0AAF8B4F90C309AB2D2E73CAF000889
:102FD000024B01461868FFF7ADBF00BF1400002088
:102FE0002DE9F043694CD4F8008083B004460E46C6
:102FF00017461D46B8F1000F03D0D8F83830002B23
:1030000077D0022F05D0012F00F2AC80002DC0F246
:10301000A980636EDA0752D52146404604F0AAFC27
:10302000216B41B104F14003994202D0404604F0C3
:10303000CDFD00232363B4F90CC000231CF0800FE6
:10304000A361636064D12CF44A6C2CF0030C022F52
:10305000A4F80CC06AD001AB6A462146404605F090
:10306000CFF8A3891843A081002D2FD0002E2ED099
:10307000D8F83830002B38D0009B2660AB42B4F92A
:103080000C301CBF43F40063A381012F04BF43F045
:103090000103A3819AB213F00803C4E904652CD09C
:1030A000D1075DD56D42A561656E002315F0010560
:1030B000A36027D00025284603B0BDE8F083A3898C
:1030C0009B05A9D4A06D05F027F8A5E7009D28462B
:1030D00005F0C6F80646002847D0A38943F08003D0
:1030E000A381D8F83830002BC6D1404604F076FCD6
:1030F000C2E7404604F072FC83E7A360656E15F0FA
:103100000105D7D1930524D5284603B0BDE8F08347
:103110002169404604F05AFDB4F90CC02CF44A6C05
:103120002CF0030C022FA4F80CC094D1002500222F
:1031300004F14303A2600122C4E904322360636EF8
:103140004CF0020CD807A4F80CC0DDD41CF4007FAE
:10315000DAD1A06D04F0E2FF284603B0BDE8F083A9
:10316000A560CBE74FF0FF35CEE7DDF80090A9452D
:1031700004D0484605F074F8064620B9B4F90CC0EE
:103180004FF0FF35D3E74D46A7E700BF14000020FE
:103190000EB410B59DB06FF000411FABCDE9060134
:1031A0000491094953F8042B0290084C08680193D4
:1031B00002A9059400F00CF8029B00221A701DB0C1
:1031C000BDE8104003B07047140000200802FFFF64
:1031D0002DE9F04FD5B00C460C9191460E930A9014
:1031E00004F092FF036817931846FDF789FBA38943
:1031F0001690190603D52369002B00F08B87002455
:103200002BAB4D46CDE92944CDE91944CDE91B440A
:103210001294289398461894002308940024CDE92A
:1032200014342B78002B00F0DD81AA4604E01AF854
:10323000013F002B00F01681252BF8D1BAEB0506D3
:1032400040F014819AF80030002B00F0CB8100236D
:103250004FF0FF329AF801608DF8833009930AF13C
:10326000010A07921F462B244FF020090AF1010A98
:10327000A6F120035A2B00F22D81DFE813F0BA02E9
:103280002B012B01B5022B012B012B016A002B0115
:103290002B014F02E3022B015A02C9022B01C40287
:1032A0005B005B005B005B005B005B005B005B0046
:1032B0005B002B012B012B012B012B012B012B017F
:1032C000BF012B011A028600BF01BF01BF012B0104
:1032D0002B012B012B01B0022B012B01C3002B0171
:1032E0002B012B0124022B015F022B012B013C0738
:1032F0002B012B012B012B012B012B012B012B016E
:10330000BF012B011A028800BF01BF01BF01A30248
:10331000880081002B0196022B018202C5007002F9
:1033200081002B0124027E0039072B012B01190794
:103330002B017E00A6F1300300221AF8016B02EB8C
:10334000820203EB4202A6F13003092BF5D9099260
:103350008EE7DDF828B0584604F0D6FE43681B938C
:103360001846FDF7CDFA1C900646584604F0CCFEF0
:1033700083681993002E40F07A869AF8006075E70A
:103380009AF8006047F0200770E747F01007BA0688
:103390000E9B40F18081073323F007031A465B68D8
:1033A00052F8084B0E929946002BC0F25F85079B9E
:1033B000013301F01F8054EA090327F0800B00F06D
:1033C000E3840A2C79F1000380F0818730340123F3
:1033D0008DF84F415F460B930DF24F1507990B98EF
:1033E0009DF8832081424FF00003B8BF01460D9342
:1033F00006910F9313931093002A7CD0069B013300
:10340000069378E047F0100717F0200900F03481A8
:103410000E9B073323F00703D3F8049053F8084BAF
:103420000E9327F4806B002300228DF88320079AE7
:10343000511C00F00D8254EA09012BF0800740F086
:103440000682002A41F01080002B40F0A2841BF07D
:1034500001030B9300F0378530238DF84F310DF2C7
:103460004F15BBE7BAEB050600F0BC802A9B33443E
:103470002A93299B0133072BC8E90056299305DCC1
:1034800008F10808089B33440893DBE60C990A9876
:1034900028AA06F0B7F880B90DF1AC08F2E70C994C
:1034A0000A9828AA06F0AEF8002800F08C800D9B40
:1034B0001BB10D990A9804F089FB0C9B9B8913F0B2
:1034C000400F089B18BF4FF0FF330893089855B082
:1034D000BDE8F08F002E00F0858000228DF8EC60B2
:1034E0008DF88320012306930D920B9307920F9280
:1034F000139210923BAD17F0020302D006990231ED
:10350000069117F0840B07D109990698A1EB0009E1
:10351000B9F1000F00F315832A9C8AB1299A0DF1A5
:10352000830101320134C8F80010072A4FF001016D
:103530002A942992C8F8041000F3468308F1080879
:1035400083B1299B21AA01330234C8F80020072B3C
:103550004FF002022A942993C8F8042000F348830C
:1035600008F10808BBF1800F00F00E82079B0B9A50
:10357000A3EB020BBBF1000F00F34F82FB0500F140
:10358000A5810B9BC8F804301C44299BC8F8005047
:103590000133072B2A94299300F3C78208F1080806
:1035A0007B0705D5099B069A9D1A002D00F32C83F5
:1035B000DDE9083206998A42ACBF9B185B18089374
:1035C000002C7FF46CAF002329930D9B1BB10D9948
:1035D0000A9804F0FBFA0DF1AC0855462B78002B45
:1035E0007FF423AE2A9B002B3FF467AF0C9C0A9814
:1035F00028AA214606F006F8A38960E70E9B073348
:1036000023F00702F2E80234CDE91434DDE9143482
:1036100024F000440E92994618462146A74B4FF0DD
:10362000FF32FDF71DFF002840F06284A34B48469F
:1036300021464FF0FF32FDF7F5FE002840F0588498
:10364000DDE9140100220023FDF7E2FE002840F02E
:10365000AD879DF883209A4D9A4B27F08007032170
:10366000472EC8BF1D4600230D9306910B9107936B
:103670000F9313931093BFE617F0100340F02E84BE
:1036800017F0400200F054870E9A52F8044B0E9245
:103690009946A4B2C5E653F8044B0E93FB0600F11D
:1036A00018847D0640F1128444F3C0394B4624B29D
:1036B0007AE60E9B002253F8041B8DF883208DF8C8
:1036C000EC100E930EE70E9C079B54F8045B4FF032
:1036D00000098DF88390002D00F0D5865A1C00F06B
:1036E00052851A4649462846FDF77AF90D9000287A
:1036F00001F057800D9BCDF81C905B1B0B930E9433
:1037000023EAE3739DF883200693CDF83490CDF837
:103710003C90CDF84C90CDF840906DE60E9B53F860
:10372000042B0992002A80F2C983099A0E9352420F
:1037300009929AF8006047F0040797E547F0100BEC
:103740001BF0200900F081830E9B073323F0070351
:10375000D3F8049053F8084B0E93012364E60E9BB4
:1037600053F8044B0E93302378268DF88430564B53
:10377000189347F0020B8DF885604FF00009022383
:1037800052E6BD0600F18284FC0600F173867806DD
:1037900000F13C87B90540F16D860E9B089953F8FE
:1037A000042B0E931170554618E79AF800606C2EA2
:1037B00003BF9AF8016047F020070AF1010A47F0B9
:1037C000100753E59AF80060682E03BF9AF801606D
:1037D00047F400770AF1010A47F0400746E59AF8F6
:1037E000006047F0080741E59AF8006047F00107DC
:1037F0003CE59DF88330002B7FF4BFAD9AF8006064
:103800008DF8839032E59AF8006047F080072DE547
:10381000524612F8016B2A2E01F0CD81A6F1300339
:10382000092B924698BF002201F288801AF8016B9A
:1038300002EB820203EB4202A6F13003092BF5D919
:10384000079215E59AF800608DF883400EE5BB46B7
:10385000012B3FF4B6AD022B54AD12D1189A04F0EF
:103860000F032409D35C05F8013D44EA09744FEACB
:10387000191954EA0903F2D154AB5B1B5F460B9351
:10388000ACE504F00703E40844EA49744FEAD909B7
:10389000303354EA09012A4605F8013DF1D11BF005
:1038A000010FE9D0302BE7D03023023A05F8013C74
:1038B00054AB9B1A5F460B9315468FE5FFFFEF7FD6
:1038C00040AF000844AF000850AF0008652E40F339
:1038D000E680DDE9140100220023FDF78FFD0028BA
:1038E00000F0CD81299BBF4AC8F800200133013484
:1038F0000122072B2A942993C8F8042000F37D8520
:1039000008F10808229B129A934280F2D382169BF8
:10391000179A1C44C8E90023299B2A940133072BDA
:10392000299300F3EB8308F10808129B5D1E002D1C
:103930007FF736AE102D299BDFF8AC9240F36E85F1
:1039400049462246B946DDF828B00C9C10260F46A1
:1039500005E008F10808103D102D40F35B850133A8
:103960001032072BC8E90076CDE92932F1DD28AA0B
:103970002146584605F046FE00287FF498ADDDE963
:1039800029320DF1AC08E6E7099B069AA3EB020B7E
:10399000BBF1000F7FF7EAADBBF1100F299ADFF8FA
:1039A00048922CDD1D9621464E460C9CDDF8289051
:1039B000102306E0ABF1100BBBF1100F08F1080863
:1039C0001ADD01321031072AC8E90063CDE9292147
:1039D000F0DD28AA214648460DF1AC0805F012FE9C
:1039E00000287FF464ADABF1100BBBF1100FDDE9E3
:1039F00029214FF01003E4DCB1461D9E0C46013234
:103A00005C44072ACDE92924C8F80090C8F804B01E
:103A100000F31D8508F10808A8E5BBF1100F299AED
:103A2000DFF8C4912DDD41462046A8464C460C9D4A
:103A3000DDF82890102306E0ABF1100BBBF1100F5E
:103A400001F1080119DD01321030072AC1E90043F4
:103A5000CDE92920F0DD28AA2946484605F0D2FD07
:103A600000287FF424ADABF1100BBBF1100FDDE9A2
:103A700029202BA94FF01003E5DC4546A1468846D6
:103A8000044601325C44072ACDE92924C8F8009095
:103A9000C8F804B000F3CC8108F108086EE5129B69
:103AA000012B40F37C81299EC8F800500136013477
:103AB0000123072E2A942996C8F8043000F3E081E8
:103AC00008F10808169B179A01361C44072EC8E90E
:103AD0000023CDE9296400F3E08108F10808DDE95D
:103AE000140100220023FDF789FC002840F07481B6
:103AF000129B0136013B01351C44072EC8F80050CB
:103B00002996C8F804302A9400F3598108F108086E
:103B10001A9BC8F8043001361C44072E24ABCDE9AB
:103B20002964C8F800307FF739AD0C990A9828AAA3
:103B300005F068FD00287FF4BAAC2A9C0DF1AC08B2
:103B40002EE5B9F1100FDDE929212BDDCDE91D3B73
:103B50001F96DDF828B04E461024A9460C9D04E0BF
:103B6000103E102E08F1080817DD01321F4B1031EE
:103B7000072AC8E90034CDE92921F1DD28AA294620
:103B800058460DF1AC0805F03DFD00287FF48FACE0
:103B9000103E102EDDE92921E7DCDDE91D3B4D4615
:103BA000B1461F9EC8F80490013209EB0104072AB0
:103BB0000E49C8F80010CDE9292400F3FF839DF8D1
:103BC000832008F10808A8E40C990A981D9328AAF4
:103BD00005F018FD00287FF46AAC2A9C1D9B0DF1AE
:103BE000AC08ADE480AF000894AF000884AF0008D3
:103BF0000C990A9828AA05F005FD00287FF457AC17
:103C00002A9C0DF1AC08ADE4102D299B21DD0A9F03
:103C1000DDF83090102604E0103D102D08F1080862
:103C200017DD0133B04A1034072BC8E90026CDE96F
:103C30002934F1DD28AA494638460DF1AC0805F0D3
:103C4000E1FC00287FF433AC103D102DDDE9293470
:103C5000E7DC0133A44AC8F804502C44072BCDE913
:103C60002934C8F800207FF7A3AC0C990A9828AA39
:103C700005F0C8FC00287FF41AAC2A9C98E422992D
:103C8000002940F36683DDF84090129B9945A8BF58
:103C90009946B9F1000F0BDD299B01334C44072BEA
:103CA000C8E900592A94299300F32F8508F10808E0
:103CB000109EB9F1000FA8BFA6EB0906002E00F375
:103CC0003882DDF840B07805AB4400F16682229B73
:103CD000129A934202DBF90740F18E84169A1799E3
:103CE0001444C8E90012299A2A940132072A299219
:103CF00000F3188508F10808129AAE18A6EB0B0617
:103D0000D51AAE42A8BF2E46002E0DDD299BC8F85D
:103D100000B001333444072BC8F804602A94299377
:103D200000F31A8608F10808002EA8BFAD1B002D6D
:103D30007FF736AC102D299BDFF8B09140F36E83EE
:103D400049462246B946DDF828B00C9C10260F469D
:103D500005E008F10808103D102D40F35B830133A6
:103D60001032072BC8E90076CDE92932F1DD28AA07
:103D70002146584605F046FC00287FF498ABDDE963
:103D800029320DF1AC08E6E7079B002B7FF41EAB50
:103D90005F46002307930B9354ADFFF71FBBFA0751
:103DA0003FF581AE299EC8F8005001360134012349
:103DB000072E2A942996C8F804307FF7A7AE0C99ED
:103DC0000A9828AA05F01EFC00287FF470ABDDE9F4
:103DD00029640DF1AC089BE6129B5D1E002D7FF758
:103DE00097AE102DDFF8049140F396832246079793
:103DF0000A9C0C9F4FF0100B05E008F10808103DDD
:103E0000102D40F3878301361032072EC8E9009B3E
:103E1000CDE92962F1DD28AA3946204605F0F2FBFA
:103E200000287FF444ABDDE929620DF1AC08E6E738
:103E30000C990A9828AA05F0E5FB00287FF437AB17
:103E40002A9C0DF1AC08FFF799BB1BF0100340F062
:103E500028811BF0400200F079830E9A52F8044B3F
:103E60000E929946A4B20123FFF7DEBA2D236442D5
:103E70008DF8833069EB4909BB460123FFF7D7BAB8
:103E80000C990A9828AA05F0BDFB00287FF40FAB17
:103E9000DDE929640DF1AC0814E60C990A9828AA0A
:103EA00005F0B0FB00287FF402ABDDE929640DF1D9
:103EB000AC0814E6FD077FF573AB28E59AF80060BF
:103EC0000E93FFF7D3B954ADFFF788BAB80500F1E8
:103ED000A6834FEAE4794B46FFF766BA0E9B53F888
:103EE000044B0E93FFF79DBA84AF000894AF00080F
:103EF000DDE9140102460B46FDF7B2FA002840F056
:103F00000F86612E00F04585412E00F06D84079BE1
:103F1000013326F02003069300F0A983472B00F01D
:103F20008885DDE9141247F480730F931346002B44
:103F3000C0F292850B9300231D938B460D93069B35
:103F4000462B00F0FD83452B00F044850799019135
:103F500026A9049123A9039122A9029102210B9B76
:103F60000A9800915A4602F013FD069B472B05461E
:103F700040F0318617F0010FB9460F9F40F0FC84E6
:103F8000269B5B1B1293069B472B00F08283069BAC
:103F9000462B00F01284229B1093109B069A013B43
:103FA000412A229300F0AD85F2B20021002BB8BF68
:103FB000109B8DF89020BABFC3F101032D222B2254
:103FC000092B8DF8912040F38D850DF19F04B64F9C
:103FD0002246104687FB0321DA17C2EBA10202EB4F
:103FE0008201A3EB4101303100F8011C194663291D
:103FF000134600F1FF32ECDC3033D9B2831E9C4211
:1040000002F8011C40F2F18513460DF1920201E025
:1040100013F8011B02F8011B9C42F9D10DF1A10319
:104020000DF192021B1A134424AA9B1A1A93129B95
:104030001A9A012B1A440B9240F39E850B9B169AF9
:1040400013440B930B9A002329F4806722EAE2724F
:1040500047F480770F930692139310931D9B002BC8
:1040600040F03F839DF883200793FFF7C5B9199B64
:10407000002B3FF482A9199B1B78002B3FF47DA9EC
:104080009AF8006047F48067FFF7F0B80E9B089835
:1040900053F8041B0E93C217C1E900025546FFF7FF
:1040A0009DBA0E9B53F8044B0E930123FFF7BCB946
:1040B0007E4B189317F0200900F0EC800E9B07331D
:1040C00023F00703D3F8049053F8084B0E93F80736
:1040D00009D554EA090306D030238DF8856047F0EE
:1040E00002078DF8843027F4806B0223FFF79CB918
:1040F000BB46FFF725BB6E4B1893DBE70C990A987C
:1041000028AA05F07FFA00287FF4D1A92A9C0DF196
:10411000AC080AE40A98402104F0AAF80C9B186045
:104120001861002800F065850C9A40235361FFF761
:1041300066B8102E299BDFF87C9140F3298248460F
:1041400042462146A846B9460A9C0C9D4FF0100BEA
:10415000074604E00832103E102E40F3138201336C
:104160001031072BC2E9007BCDE92931F2DD28AA05
:104170002946204605F046FA00287FF498A9DDE993
:1041800029312BAAE7E72846CDF81C900E94FCF7BE
:10419000B7FB03460B90FFF7B3BA129BCDF82CA0E8
:1041A0004246DDF84C801097EB1807935E46199F46
:1041B000DDF87090DDF828A0DDF830B00F9B139586
:1041C0002146B8F1000F2FD0002B30D1013F08F16C
:1041D000FF381B9BC2E90039299B01334944072B57
:1041E0002A91299368DC0832079B38789B1B83420D
:1041F000A8BF0346002B1C460BDD2998013019444B
:104200000728C2E900632A91299000F314813878C5
:104210000832002CACBF051B0546002D0BDC064404
:104220000F9BB8F1000FCFD1002B00F023820F9B22
:10423000013B0F93CDE7102D29981DDD102404E0DC
:10424000103D102D02F1080216DD0130194B10311E
:104250000728C2E90034CDE92901F1DD28AA594631
:10426000504605F0CFF900287FF421A9103D102D0C
:10427000DDE929012BAAE8DC01300E4B5560294409
:104280000728CDE92901136000F33282387808321B
:104290000644C5E717F0100300F0A1800E9B53F809
:1042A000044B0E9313E700BF6766666650AF0008C5
:1042B00064AF000894AF000828AA5946504605F09C
:1042C000A1F900287FF4F3A82A992BAA8CE70BF414
:1042D000806300220696CDF82CA0CDF8348054AF30
:1042E000DDF8648016469A460CE0002320464946D5
:1042F0000A22FCF76DF90A2C79F100031BD304465E
:1043000089462F4620460A2200234946FCF760F9D9
:1043100030327D1E013607F8012CBAF1000FE4D0CF
:1043200098F800309E42E0D1FF2EDED00A2C79F1C1
:10433000000380F0408154AB5B1BDDF82CA0CDF86E
:1043400064801296DDF83480069E0B935F46FFF77B
:1043500045B8299BBC4AC8F800200133013401222A
:10436000072B2A942993C8F8042000F3388108F118
:104370000808002940F09780129A07F001031343C0
:104380003FF40EA9169B17991A19C8E90013299B27
:104390002A920133072B299300F3478108F108087B
:1043A0001299C8F8005001338C18072BCDE9293435
:1043B000C8F804107FF7F2A8FFF7B7BB0C990A986A
:1043C0001D9328AA05F01EF900287FF470A89DF817
:1043D00083202A9C1D9B0DF1AC08FFF79EB817F0B7
:1043E000400200F0C2800E9A52F8044B0E92994699
:1043F000A4B26CE6BB46FEF7E4BF0C990A9828AA63
:1044000005F000F900287FF452A82A9C0DF1AC08B1
:10441000FFF778BA14463A464F46914601332C448A
:10442000072BC8F80090C8F80450CDE929347FF76D
:10443000B5A8FFF77ABB28AA5946504605F0E2F81E
:1044400000287FF434A838782A992BAAE1E60C9941
:104450000A9828AA05F0D6F800287FF428A82A9CF4
:104460000DF1AC08FFF782B8012BBB467FF4F3A92E
:10447000FEF7ACBF0E9B089953F8042B554611600C
:104480000E93FFF7ABB8062B294628BF06230795E6
:104490000D952A4606936D4D0E940B930F91139133
:1044A0001091FEF7A9BF169B17981A19C8E90003C7
:1044B000299B2A920133072B299300F3B68008F138
:1044C00008080029BFF66CAF4E421031DFF880912A
:1044D00080F297824146DDF828B0A84610240C9D52
:1044E00004E00831103E102E40F38982013310326F
:1044F000072BC1E90094CDE92932F2DD28AA29462B
:10450000584605F07FF800287EF4D1AFDDE9293266
:104510002BA9E7E7079F144601362C44072ECDE967
:104520002964C8F80090C8F804507FF7EFAA46E461
:104530000E9B17F4007914BF53F8044B53F8044B47
:104540000E931CBF9146E4B2FEF76BBF0E9B1BF4AB
:10455000007914BF53F8044B53F8044B0E931CBF5F
:104560009146E4B20123FEF75FBF0E9B17F400797A
:1045700014BF53F8044B53F8044B0E931CBF9146E1
:10458000E4B2A4E5454690463A460C464F4691466D
:1045900001333444072BCDE92934C8F80090C8F81A
:1045A000046057DC08F10808FFF78BBB2D228DF85B
:1045B0008320FFF750B81C9B1B99ED1A1A4628461A
:1045C00004F0EEFF98F801300BB108F10108204625
:1045D00049460A2200230026FBF7FAFF8FE60C99D2
:1045E0000A9828AA05F00EF800287EF460AF2299F8
:1045F0002A9C0DF1AC08BCE6129AAE18A6EB0B068D
:10460000D51AAE42A8BF2E46FFF78EBB0E9B089967
:1046100053F8042B0E9311805546FEF7DFBF44F389
:10462000C0194B4664B2FEF7BFBE0C990A9828AA7F
:1046300004F0E8FF00287EF43AAFDDE92932229940
:104640000DF1AC083DE700BF80AF000878AF00086F
:1046500094AF00080C990A9828AA04F0D3FF002808
:104660007EF425AF2A9C0DF1AC08FFF72ABB062388
:10467000079356E4DDE91235EB189E421997B346CD
:10468000DDF82CA0109F90460C4628BF9B46FFF7F4
:104690001EBB229B1093DA1C02DB079A934204DDB7
:1046A000023E26F02003069377E4109B129A934271
:1046B000C0F2488119F0010F00F01182169A1344DC
:1046C0000B9319F4806F03D0109B002B00F3C7816C
:1046D0000B9B23EAE3730693672600230F93139340
:1046E000BCE42D2200238DF883200793FEF786BEBD
:1046F00028AA5946504604F085FF00287EF4D7AE1C
:1047000038782A992BAA06448AE50C990A9828AA8F
:1047100004F078FF00287EF4CAAE2A9C0DF1AC08A4
:10472000FFF7C6BA0C990A9828AA04F06BFF002874
:104730007EF4BDAE229B2A9C0DF1AC08FFF7DCBADB
:104740000799019126A9049123A9039122A9029115
:1047500003210B9B0A9800915A4602F019F903783D
:10476000302B054600F0F181229B079AB94613448D
:104770000F9FEC180B99584600220023FCF73EFED1
:1047800010B12346FFF7FDBB269BA342BFF4F9AB54
:1047900030215A1C26921970269B9C42F9D8FFF7AB
:1047A000F0BB079B9DF883200E9406930B93079014
:1047B0000F9013901090FEF71FBE229A1092002ABD
:1047C00040F3E081079909F001030B4340F0B78102
:1047D000109B0B93662619F4806F40F041810B9B70
:1047E00023EAE373069378E730238DF88430582367
:1047F0008DF88530079B632B47F0020400F3BF80E0
:1048000000230D933BADDDE9141247F481730F9340
:104810001346002B2746C0F285800B9326F0200319
:10482000069300238B461D93612E00F04081412E9C
:104830007FF485AB22AA0B99584604F021FE002292
:104840004FF07F53FCF772FB02460B46CDE9102375
:1048500000220023FCF7D2FD08B101232293AC4BC8
:104860000B93079BCDE912A6CDE91E78DDF82CA0AD
:10487000DDE9106703F1FF39AB46109506E0002231
:10488000002309F1FF39FCF7B9FDE8B9A14B00227B
:1048900030463946FCF74AFB0F460646FCF7F6FD64
:1048A0000446FCF7D9FA0B46024639463046FCF777
:1048B00085F91AF80430B9F1FF3FD8464D460BF898
:1048C000013B06460F46DAD130463946924BDDF8B9
:1048D00048A0139ECDF848800022A946DDF87C80D0
:1048E000109D1E9FCDE91001FCF7B0FD002855D1A9
:1048F000DDE91001884B0022FCF780FD08B1E107DB
:104900004CD44B46002B06DB01335B4430220BF8C2
:10491000012B5B45FBD1ABEB0503B94612930F9F0F
:10492000FFF731BB26F020030693DDE914349B46E4
:1049300004F100430B932D231D9375E70023079388
:10494000FEF796BC129B169A9A18109B0B92002B9E
:1049500040F3098167263EE70C990A9828AA04F0DB
:1049600051FE00287EF4A3AD229D129B2A9C5D1B64
:104970000DF1AC08FFF7D8B9079BEC18FAE60A98D6
:10498000591C03F075FC0546002800F026810D90A7
:1049900039E730238DF88430782329E7129B26935A
:1049A0000B9B1BF8012CD97B8A425B4609D1302036
:1049B00003F8010C269B5A1E269213F8012C9142F3
:1049C000F6D0392A0BBF0B9A0132927AD2B203F891
:1049D000012CA0E707990B9B0A984C1C26A904916F
:1049E00023A9039122A9029102215A460194009120
:1049F00001F0CEFF0546B9462C440F9FBAE6454666
:104A0000884601333244072BCDE92932C8F800909B
:104A1000C8F804607FF7C2AC0C990A9828AA04F081
:104A2000F1FD00287EF443ADDDE929320DF1AC083B
:104A3000B6E4079B002B08BF0123079347F480735C
:104A40000F93159B002BC0F2B180DDF850B00D9094
:104A50000B931D90FFF77ABA00230D9365E7672645
:104A600019990B78FF2B00F0B2800024109A204691
:104A700003E001300131FF2B08D0934206DAD21A4D
:104A80004B78002BF5D10B780134F4E71991109293
:104A900013900F940F9A139B1C9913440B9A01FBCC
:104AA00003230B9323EAE3730693FFF7D7BA22AAF3
:104AB0000B99584604F0E4FC00224FF07F53FCF7BA
:104AC00035FA02460B46CDE9102300220023FCF7FD
:104AD00095FC08B101232293104B0B93C1E6109B68
:104AE0000B93EEE5002963D130228DF892200DF171
:104AF0009302303302F8013B24ABD31A1A93FFF729
:104B000096BA06F10F02D2B20121FFF74FBA00BFE9
:104B100064AF0008000030400000E03F50AF0008E4
:104B2000159B384D002BB4BF2D229DF88320364BAA
:104B3000B8BF8DF8832027F08007FEF790BD169B45
:104B4000D31819440B91662645E60B995846002266
:104B50000023FCF753FC00287FF406AE079BC3F14B
:104B60000103229301E6C3F101031A4422EAE2732E
:104B70000B9206936726B0E519F0010F3FF462AA85
:104B8000FFF75CBA079A09F0010959EA020304D158
:104B90000123069366260B939FE5169B01331A4467
:104BA00022EAE2730B920693662696E50D90BCE628
:104BB0000DF192029DE70E9B9AF80160924653F820
:104BC000042B0E9342EAE2720792FEF74FBB0023DA
:104BD0000F9313935EE7079C0DE70C998B8943F0C5
:104BE000400213468A81FEF76ABC02231A93FFF73C
:104BF0001EBA0A9A0C2313604FF0FF330893FEF796
:104C000065BC00BF48AF00084CAF00082DE9F04F6D
:104C1000D5B01C46079191460546099003F074FAF9
:104C20000268179210460E94FBF76AFE16901DB1AB
:104C3000AB6B002B00F02A82079A536EDD0740F120
:104C40003881B2F90C2091B28F0409D4079B42F449
:104C500000529A8191B21A465B6E23F40053536658
:104C60000E0740F1CB80079B1B69002B00F0C6802C
:104C700001F01A030A2B00F0CF8000242BAB4D4625
:104C8000CDE92944CDE91944CDE91B441294289378
:104C90009846189400230B940024CDE914342B7803
:104CA000002B00F09D81AA4604E01AF8013F002B7A
:104CB00000F0C780252BF8D1BAEB050640F0C5807F
:104CC0009AF80030002B00F08B8100234FF0FF3268
:104CD0009AF801608DF883300A930AF1010A08926C
:104CE0001F462B244FF020090AF1010AA6F12003E8
:104CF0005A2B00F2ED80DFE813F0EB02EB00EB0043
:104D0000E602EB00EB00EB006A00EB00EB005C025C
:104D10008002EB0067028A02EB0085025B005B0009
:104D20005B005B005B005B005B005B005B00EB001B
:104D3000EB00EB00EB00EB00EB00EB007A01EB008B
:104D4000F801D2017A017A017A01EB00EB00EB0065
:104D5000EB00E102EB00EB002D02EB00EB00EB00BF
:104D60000202EB00A402EB00EB008307EB00EB0078
:104D7000EB00EB00EB00EB00EB00EB007A01EB004B
:104D8000F801D4017A017A017A01C702D401CD0178
:104D9000EB00D402EB006C022F02B502CD01EB0058
:104DA00002027E008007EB00EB006107EB007E0053
:104DB000A6F1300300221AF8016B02EB820203EB2A
:104DC0004202A6F13003092BF5D90A928EE7DDF8ED
:104DD00024B0584603F098F943681B931846FBF734
:104DE0008FFD1C900646584603F08EF98368199390
:104DF000002E40F0CD869AF8006075E7079D09986F
:104E0000294601F0B7FC002841F01C83A98901F074
:104E10001A030A2B7FF431AF079AB2F90E30002B38
:104E2000FFF62BAF536ED80702D4890541F13B81C1
:104E30000799099823464A4655B0BDE8F04F01F05E
:104E40004FBCBAEB050600F0CB802A9B33442A9373
:104E5000299B0133072BC8E90056299305DC08F18B
:104E600008080B9B33440B932AE70799099828AA53
:104E700004F080FC80B90DF1AC08F2E707990998BD
:104E800028AA04F077FC002800F09B800D9B1BB142
:104E90000998194602F09AFE079A536ED90740F115
:104EA000EA8093895B0601F1D9820B9855B0BDE881
:104EB000F08F079BB3F90C20900591B23FF5C4AE7B
:104EC0001D46986D03F028F9B5F90C2091B2BBE6A8
:104ED000002E00F0858000228DF8EC608DF8832094
:104EE0000123CDE90C32069308920F92139210928F
:104EF0003BAD17F0020302D006990231069117F07C
:104F0000840B07D10A990698A1EB0009B9F1000FAB
:104F100000F370832A9C8AB1299A0DF18301013232
:104F20000134C8F80010072A4FF001012A94299291
:104F3000C8F8041000F3B68308F1080883B1299B70
:104F400021AA01330234C8F80020072B4FF00202D7
:104F50002A942993C8F8042000F3B28308F10808C2
:104F6000BBF1800F00F06982089B0C9AA3EB020B47
:104F7000BBF1000F00F3AA82FB0500F100820C9B3D
:104F8000C8F804301C44299BC8F800500133072B93
:104F90002A94299300F3228308F10808780705D59D
:104FA0000A9B069A9D1A002D00F39683DDE90A23D9
:104FB00006998A42ACBF9B185B180B93002C7FF4B8
:104FC0005DAF002329930D9B1BB10D99099802F049
:104FD000FDFD0DF1AC0855462B78002B7FF463AE38
:104FE0002A9B002B41F0D3810023299354E70E9B89
:104FF000073323F00702F2E80234CDE91434DDE987
:10500000143424F000440E92994618462146B54BBC
:105010004FF0FF32FCF724FA002840F0EF84B14B48
:10502000484621464FF0FF32FCF7FCF9002840F0DB
:10503000E584DDE9140100220023FCF7E9F90028EA
:1050400040F067879DF88320A74DA84B27F0800785
:105050000321472EC8BF1D4600230D9306910C91D6
:1050600008930F9313931093002A3FF442AF069BCB
:10507000013306933DE7079B9B899A053FF512AFE5
:10508000079CA06D03F04AF8A3890BE7099802F08A
:10509000A5FCD1E59AF8006047F0200724E647F028
:1050A0001007BA060E9B40F13B84073323F0070339
:1050B0001A465B6852F8084B0E929946002BC0F2D4
:1050C0004C84089B013300F0D88254EA090327F08E
:1050D000800B40F0D382089B002B40F0D4825F46C7
:1050E000002308930C9354AD1DE10E9B002253F84E
:1050F000041B8DF883208DF8EC100E93F0E60E9CC7
:10510000089B54F8045B4FF000098DF88390002D44
:1051100000F093855A1C00F051861A4649462846ED
:10512000FBF75EFC0D90002801F00E810D9BCDF881
:1051300020905B1B0C930E9423EAE3739DF883206D
:105140000693CDF83490CDF83C90CDF84C90CDF846
:10515000409089E747F0100717F0200900F0D2834C
:105160000E9B073323F00703D3F8049053F8084B42
:105170000E9327F4806B002300228DF88320089A79
:10518000511C00F0B88054EA09012BF0800740F070
:10519000B180002A40F0F685002BA1D11BF001035D
:1051A0000C9300F0148430238DF84F310DF24F151D
:1051B000B9E00E9B53F8042B0A92002A80F2DA839E
:1051C0000A9A0E9352420A929AF8006047F0040736
:1051D0008AE5BD0600F1D184FC0600F1D885780689
:1051E00000F1A586B90540F1D2850E9B0B9953F8C5
:1051F000042B0E9311705546EEE69AF800608DF878
:10520000834071E59AF8006047F080076CE55246EC
:1052100012F8016B2A2E01F03F82A6F13003092B10
:10522000924698BF002201F2BC801AF8016B02EB93
:10523000820203EB4202A6F13003092BF5D9089252
:1052400054E547F0100B1BF0200900F076830E9B0D
:10525000073323F00703D3F8049053F8084B0E9359
:10526000012389E70E9B53F8044B0E9330237826D5
:105270008DF884301E4B189347F0020B8DF8856033
:105280004FF00009022377E79AF80060682E03BF09
:105290009AF8016047F400770AF1010A47F04007E5
:1052A00022E59AF800606C2E03BF9AF8016047F07F
:1052B00020070AF1010A47F0100715E59AF8006087
:1052C00047F0080710E59AF8006047F001070BE582
:1052D0009DF88330002B7FF48EAD9AF800608DF836
:1052E000839001E5FFFFEF7F40AF000844AF000867
:1052F00050AF0008BB46012B00F0C081022B54AD1B
:1053000020D1189A04F00F032409D35C05F8013D5D
:1053100044EA09744FEA191954EA0903F2D154AB6B
:105320005B1B5F460C9308990C989DF88320814283
:105330004FF00003B8BF01460D9306910F931393EE
:10534000109391E604F00703E40844EA49744FEA35
:10535000D909303354EA09012A4605F8013DF1D153
:105360001BF0010FDBD0302BD9D03023023A05F8E7
:10537000013C54AB9B1A5F460C931546D3E7652E50
:1053800040F3E680DDE9140100220023FCF736F843
:10539000002800F0DC81299BBF4AC8F800200133B7
:1053A00001340122072B2A942993C8F8042000F322
:1053B000CC8408F10808229B129A934280F2D6828C
:1053C000169B179A1C44C8E90023299B2A94013391
:1053D000072B299300F3248408F10808129B5D1E13
:1053E000002D7FF7DBAD102D299BDFF8B09240F345
:1053F000BD8449462246B946DDF824B0079C1026F4
:105400000F4605E008F10808103D102D40F3AA846E
:1054100001331032072BC8E90076CDE92932F1DDDE
:1054200028AA2146584604F0A5F900287FF42EAD9D
:10543000DDE929320DF1AC08E6E70A9B069AA3EBF9
:10544000020BBBF1000F7FF78FADBBF1100F299A54
:10545000DFF848922CDD1D9621464E46079CDDF86C
:105460002490102306E0ABF1100BBBF1100F08F1F4
:1054700008081ADD01321031072AC8E90063CDE9B6
:105480002921F0DD28AA214648460DF1AC0804F098
:1054900071F900287FF4FAACABF1100BBBF1100FDF
:1054A000DDE929214FF01003E4DCB1461D9E0C46D6
:1054B00001325C44072ACDE92924C8F80090C8F8D5
:1054C00004B000F3A08308F108084DE5BBF1100F0C
:1054D000299ADFF8C8912DDD204641464C46A84662
:1054E000DDF82490079D102306E0ABF1100BBBF113
:1054F000100F01F1080119DD01321030072AC1E94E
:105500000043CDE92920F0DD28AA2946484604F0C9
:1055100031F900287FF4BAACABF1100BBBF1100FDE
:10552000DDE929202BA94FF01003E5DC4546A14613
:105530008846044601325C44072ACDE92924C8F88C
:105540000090C8F804B000F3D08108F1080813E512
:10555000129B012B40F38081299EC8F80050013630
:1055600001340123072E2A942996C8F8043000F349
:105570007C8308F10808169B179A01361C44072EF5
:10558000C8E90023CDE9296400F37C8308F1080809
:10559000DDE9140100220023FBF730FF002840F072
:1055A0007881129B0136013B01351C44072EC8F857
:1055B00000502996C8F804302A9400F35D8108F160
:1055C00008081A9BC8F8043001361C44072E24AB87
:1055D000CDE92964C8F800307FF7DEAC0799099857
:1055E00028AA04F0C7F800287FF450AC2A9C0DF1DB
:1055F000AC08D3E4B9F1100FDDE929212BDDCDE9A9
:105600001D3B1F96DDF824B04E461024A946079D89
:1056100004E0103E102E08F1080817DD0132204B7F
:105620001031072AC8E90034CDE92921F1DD28AA83
:10563000294658460DF1AC0804F09CF800287FF488
:1056400025AC103E102EDDE92921E7DCDDE91D3B0C
:105650004D46B1461F9EC8F80490013209EB010483
:10566000072A0F49C8F80010CDE9292400F3518317
:105670009DF8832008F108084DE4BB460A2C79F117
:10568000000380F00C83303401238DF84F415F46D6
:105690000C930DF24F1546E680AF0008B4AF00083A
:1056A000A4AF0008079909981D9328AA04F062F88E
:1056B00000287FF4EBAB2A9C1D9B0DF1AC083DE468
:1056C0000799099828AA04F055F800287FF4DEAB62
:1056D0002A9C0DF1AC0843E4102D299B21DD099F84
:1056E000DDF81C90102604E0103D102D08F108088C
:1056F00017DD0133BB4A1034072BC8E90026CDE97A
:105700002934F1DD28AA494638460DF1AC0804F0E9
:1057100031F800287FF4BAAB103D102DDDE92934B3
:10572000E7DC0133AF4AC8F804502C44072BCDE91D
:105730002934C8F800207FF739AC0799099828AABE
:1057400004F018F800287FF4A1AB2A9C2EE42299DB
:10575000002940F31481DDF84090129B9945A8BFC1
:105760009946B9F1000F0BDD299B01334C44072BFF
:10577000C8E900592A94299300F39A8508F108088A
:10578000109EB9F1000FA8BFA6EB0906002E00F38A
:105790004683DDF840B07905AB4400F1CE84229B0E
:1057A000129A934202DBFA0740F1B883169A1799CE
:1057B0001444C8E90012299A2A940132072A29922E
:1057C00000F3838508F10808129AAE18A6EB0B06C1
:1057D000D51AAE42A8BF2E46002E0DDD299BC8F873
:1057E00000B001333444072BC8F804602A9429938D
:1057F00000F3F18508F10808002EA8BFAD1B002DAD
:105800007FF7CCAB102D299BDFF8DC9140F3AE8203
:1058100049462246B946DDF824B0079C10260F46BB
:1058200005E008F10808103D102D40F39B8201337C
:105830001032072BC8E90076CDE92932F1DD28AA1C
:105840002146584603F096FF00287FF41FABDDE9A0
:1058500029320DF1AC08E6E7FE073FF57DAE299E43
:10586000C8F80050013601340123072E2A942996E6
:10587000C8F804307FF7A3AE0799099828AA03F067
:1058800079FF00287FF402ABDDE929640DF1AC0853
:1058900097E6129B5D1E002D7FF793AE102DDFF86B
:1058A000489140F37F8222460897099C079F4FF05A
:1058B000100B05E008F10808103D102D40F3708230
:1058C00001361032072EC8E9009BCDE92962F1DDCF
:1058D00028AA3946204603F04DFF00287FF4D6AAB7
:1058E000DDE929620DF1AC08E6E70799099828AAD5
:1058F00003F040FF00287FF4C9AA2A9C0DF1AC08F0
:10590000FFF73ABB17F0100372D117F0400200F016
:10591000BD820E9A52F8044B0E929946A4B228E426
:1059200053F8044B0E93FB0656D47D0651D544F331
:10593000C0394B4624B2FFF7C1BB1BF0100340F047
:1059400036811BF0400200F092820E9A52F8044B0E
:105950000E929946A4B201230EE42D2364428DF8E1
:10596000833069EB4909BB46012308E4F8077FF55A
:1059700015AB25E59AF800600E93FFF7B5B9299BA2
:105980001A4AC8F80020013301340122072B2A9457
:105990002993C8F8042000F3708408F1080800294E
:1059A00040F01E82129A07F0010313433FF4F6AA57
:1059B000169B1799E218C8E90013299B2A92013314
:1059C000072B299300F3618308F1080819E254AD0D
:1059D000A9E4B80500F1B4824FEAE4794B46FFF739
:1059E0006DBB00BFA4AF0008B4AF000880AF0008D3
:1059F0000E9B53F8044B0E93FFF7BBBBDDE914017C
:105A000002460B46FBF72CFD002840F0A085612ED6
:105A100000F05085412E00F09982089B013326F05A
:105A20002003069300F08F85472B00F07985DDE990
:105A3000141247F480730F931346002BC0F2ED85C8
:105A40000C9300231D938B460D93069B462B00F071
:105A50004A84452B00F04F850899019126A90491AD
:105A600023A9039122A9029102210C9B099800917C
:105A70005A4600F08DFF069B472B054640F01C86DA
:105A800017F0010FB9460F9F40F0D984269B5B1B8E
:105A90001293069B472B00F01883069B462B00F0C1
:105AA0005F84229B1093109B069A013B412A22930C
:105AB00000F0AA85F2B20021002BB8BF109B8DF830
:105AC0009020BABFC3F101032D222B22092B8DF8A0
:105AD000912040F363850DF19F04BD4F224610468F
:105AE00087FB0321DA17C2EBA10202EB8201A3EBD1
:105AF0004101303100F8011C19466329134600F1B9
:105B0000FF32ECDC3033D9B2831E9C4202F8011C18
